:100000000C942A000C9434000C9434000C943400AA
:100010000C9434000C9434000C9434000C94340090
:100020000C9434000C9434000C9434000C94340080
:100030000C9434000C9434000C9434000C94340070
:100040000C9434000C9434000C9434000C94340060
:100050000C94340011241FBECFE5D8E0DEBFCDBF25
:100060000E9436000C946C000C94000087B38F77CC
:1000700087BB88B3806888BBB799F8CF8AB38160A3
:100080008ABB8BB381608BBB2FE78AE196E021505E
:1000900080409040E1F700C000008AB382608ABBD4
:1000A0008BB382608BBB2FE78AE196E021508040C2
:1000B0009040E1F700C000008AB384608ABB8BB334
:1000C00084608BBB2FE784E89EE121508040904004
:0C00D000E1F700C00000CACFF894FFCF99
:00000001FF
