S0190000454355315F456E7472616E6365476174652E73726563ED
S11300000C942A000C940F040C9436040C944700AE
S11300100C9447000C9447000C9447000C94470040
S11300200C9447000C9447000C941E070C94AB07E7
S11300300C9447000C94B2070C9447000C944700AE
S11300400C9447000C9447000C945D040C944700F6
S11300500C94470011241FBECFE5D4E0DEBFCDBF12
S113006011E0A0E6B0E0E8EBFFE002C005900D92DD
S1130070A430B107D9F721E0A4E0B1E001C01D929A
S1130080AF32B207E1F70E940A040C94DA070C9429
S113009000006CE084E091E00E945C0384E091E065
S11300A00E9478036EE770E084E091E00E944303CD
S11300B08BE792E90197F1F700C0000060E084E06B
S11300C091E00E945F030895E4E0F1E082E0808320
S11300D080E1818380E690E093838283CF010E9454
S11300E066020E9449000895CF93DF93D82FC0E0A1
S11300F017C041E066E082E00E94620587EA91E66B
S11301000197F1F700C0000040E066E082E00E9441
S1130110620587EA91E60197F1F700C00000CF5F1E
S1130120CD1738F3DF91CF910895CF93C82F6CE0AA
S113013084E091E00E945C0384E091E00E947803F3
S11301406EE770E084E091E00E94430341E060E0E8
S113015084E091E00E946903CC2319F0C13039F1A5
S11301604CC041E067E082E00E94620540E062E04A
S113017083E00E9462056CE870E084E091E00E94F4
S113018043038FE493EC0197F1F700C0000040E0D3
S113019067E082E00E94620540E062E083E00E9442
S11301A0620560E084E091E00E945F0326C040E0C5
S11301B067E082E00E94620541E062E083E00E9421
S11301C062056EE970E084E091E00E94430383E0FD
S11301D00E94740040E067E082E00E94620540E013
S11301E062E083E00E94620560E084E091E00E94A6
S11301F05F0389EA90E00E948B07CF9108950E94E3
S1130200840441E060E080E00E94910441E066E003
S113021082E00E94910441E067E082E00E94910440
S113022041E062E083E00E9491040E9444068CE66F
S113023090E00E94FB060E948B030E94F7038DEA64
S113024091E00E94FC030E94B0010E94640089ECCA
S113025090E00E948B078FB780688FBF089502C01B
S11302600E94C901809172008133D1F78FB78F77D3
S11302708FBF0E94BF010E9491038130E1F380E3AC
S1130280809372000E94A6078FB780688FBF89EAA7
S113029090E00E948B070895CF93DF931F92CDB710
S11302A0DEB780E38983BE016F5F7F4F84E20E94E3
S11302B01507898190ED980F9230A8F7809372000A
S11302C0813321F480E00E94950003C081E00E9404
S11302D095000F90DF91CF910895CF92DF92FF9216
S11302E00F931F93CF93DF931F92CDB7DEB76C01AB
S11302F01982F12C0BC0BE016F5F7F4FF801808122
S11303000E94150789818B32B1F7F39486010F0D92
S1130310111DF80180818111EECF0F90DF91CF91F3
S11303201F910F91FF90DF90CF9008950F931F932B
S1130330CF93DF938C01EB0160E080E00E940E0616
S1130340C8010E946D01CE010E946D010E944C0102
S1130350DF91CF911F910F9108950E949601089506
S113036083E790E00E94590660E283E790E00E94F0
S1130370CB0641E064E083E00E94910408952CEBF5
S113038030E043EC59E060E283E790E00E94DF064E
S113039008952DE730E043EC59E060E283E790E014
S11303A00E94DF0608951F93CF93DF93EC01162F6D
S11303B0EA81FB8164FB442740F9658184810E94C2
S11303C06205EA81FB8115FB442740F96781868138
S11303D00E946205EA81FB8116FB442740F961858E
S11303E080850E946205EA81FB81412F441F4427D6
S11303F0441F638582850E946205EA81FB8140E097
S1130400638182810E946205EA81FB8141E061810E
S113041080810E94620589EF90E00197F1F700C0A6
S11304200000EA81FB8140E0618180810E946205D5
S113043089EF90E00197F1F700C00000EA81FB81A9
S1130440412F4170658184810E946205EA81FB81AC
S113045011FB442740F9678186810E946205EA8185
S1130460FB8112FB442740F9618580850E94620567
S1130470EA81FB8113FB442740F9638582850E944E
S11304806205EA81FB8140E0638182810E9462050A
S1130490EA81FB8141E0618180810E94620589EFEC
S11304A090E00197F1F700C00000EA81FB8140E091
S11304B0618180810E94620589EF90E00197F1F7E4
S11304C000C00000DF91CF911F910895CF93DF9377
S11304D0EC01EA81FB8141E0658184810E94910401
S11304E0EA81FB8141E0678186810E949104EA816F
S11304F0FB8141E0618580850E949104EA81FB8152
S113050041E0638582850E949104EA81FB8141E098
S1130510638182810E949104EA81FB8141E06181CF
S113052080810E94910462E0CE010E94D30168E2BE
S1130530CE010E94D30161E0CE010E94D3016FE09D
S1130540CE010E94D30160E8CE010E94D30183EF63
S113055091E00197F1F700C00000DF91CF91089579
S11305601F93CF93DF93EC01162FEA81FB8164FB89
S1130570442740F9658184810E946205EA81FB81F8
S113058015FB442740F9678186810E946205EA8150
S1130590FB8116FB442740F9618580850E94620532
S11305A0EA81FB81412F441F4427441F63858285D0
S11305B00E946205EA81FB8141E0638182810E949D
S11305C06205EA81FB8141E0618180810E946205CC
S11305D089EF90E00197F1F700C00000EA81FB8108
S11305E040E0618180810E94620589EF90E001977B
S11305F0F1F700C00000EA81FB81412F4170658161
S113060084810E946205EA81FB8111FB442740F941
S1130610678186810E946205EA81FB8112FB44277F
S113062040F9618580850E946205EA81FB8113FBA4
S1130630442740F9638582850E946205EA81FB8133
S113064041E0638182810E946205EA81FB8141E08D
S1130650618180810E94620589EF90E00197F1F742
S113066000C00000EA81FB8140E0618180810E943A
S1130670620589EF90E00197F1F700C00000DF9177
S1130680CF911F910895EF92FF920F931F93CF93F1
S11306907C018B01C0E004C0C7010E94B002CF5F9F
S11306A0F801EC0FF11D60816111F6CFCF911F911C
S11306B00F91FF90EF9008950E94D3010895611166
S11306C004C068E00E94D30108956CE00E94D30145
S11306D00895FC012081421750F42181621738F4F7
S11306E0F0E44F9F600D112460680E94D3010895C7
S11306F0CF93DF93EC0161E00E94D30189EF90E096
S11307000197F1F700C0000060E8CE010E94D30118
S1130710DF91CF91089540E063E080E00E9491046E
S1130720089563E080E00E94DC050895CF93C82F0C
S11307308091760081111DC0E0910801F0E0E95D2F
S1130740FE4F1082E0910901F0E0E45EFE4F10825A
S1130750109208011092090181E080937600E091E3
S11307600A01F0910B0167E271E08CE191E00995D7
S11307703CC080ED8C0F8A3088F4E0910801E730AA
S113078061F1F0E0E95DFE4FC0838C2F0E94820787
S1130790809108018F5F809308011FC08FE98C0F3F
S11307A08A3120F08FEB8C0F8A3188F4E0910901B3
S11307B0EA3099F0F0E0E45EFE4FC0838C2F0E9493
S11307C08207809109018F5F8093090106C08DE043
S11307D00E9482078AE00E94820780910801873084
S11307E021F4CD3011F410927600CF91089587E76B
S11307F090E00E9438070895CF93DF93EC0186E9D7
S113080093E00E949E07D0930B01C0930A01DF91ED
S1130810CF9108950E94FF000E942F01FDCF1F92E7
S11308200F920FB60F9211242F933F934F935F9320
S11308306F937F938F939F93AF93BF93EF93FF93A4
S1130840E0911001F09111010995FF91EF91BF9191
S1130850AF919F918F917F916F915F914F913F9154
S11308602F910F900FBE0F901F9018951F920F920B
S11308700FB60F9211242F933F934F935F936F936F
S11308807F938F939F93AF93BF93EF93FF93E091E5
S11308900E01F0910F010995FF91EF91BF91AF9176
S11308A09F918F917F916F915F914F913F912F9184
S11308B00F900FBE0F901F9018951F920F920FB6B6
S11308C00F9211242F933F934F935F936F937F93D2
S11308D08F939F93AF93BF93EF93FF93E0910C019A
S11308E0F0910D010995FF91EF91BF91AF919F9107
S11308F08F917F916F915F914F913F912F910F90C5
S11309000FBE0F901F9018951BBA1ABA19BA18BACD
S113091017BA16BA15BA14BA13BA12BA11BA10BA67
S11309200895683008F0CDC08130C9F138F08230C4
S113093009F466C0833009F494C00895413021F16C
S113094018F0423089F008952AB381E090E002C0A3
S1130950880F991F6A95E2F78095922F98239ABB86
S11309609BB389238BBB08952AB381E090E002C036
S1130970880F991F6A95E2F7982F909592239ABB56
S11309809BB3892B8BBB08952AB381E090E002C00E
S1130990880F991F6A95E2F7822B8ABB089541302C
S11309A021F118F0423089F0089527B381E090E0F6
S11309B002C0880F991F6A95E2F78095922F9823B9
S11309C097BB98B3892388BB089527B381E090E04F
S11309D002C0880F991F6A95E2F7982F9095922389
S11309E097BB98B3892B88BB089527B381E090E027
S11309F002C0880F991F6A95E2F7822B87BB08957E
S1130A00413021F118F0423089F0089524B381E097
S1130A1090E002C0880F991F6A95E2F78095922FA3
S1130A20982394BB95B3892385BB089524B381E0AF
S1130A3090E002C0880F991F6A95E2F7982F90956D
S1130A40922394BB95B3892B85BB089524B381E08D
S1130A5090E002C0880F991F6A95E2F7822B84BB4D
S1130A600895413021F118F0423089F0089521B3FE
S1130A7081E090E002C0880F991F6A95E2F78095A3
S1130A80922F982391BB92B3892382BB089521B3FB
S1130A9081E090E002C0880F991F6A95E2F7982FD1
S1130AA09095922391BB92B3892B82BB089521B375
S1130AB081E090E002C0880F991F6A95E2F7822BCB
S1130AC081BB0895683008F076C0813019F130F0A8
S1130AD08230E1F1833009F454C00895442371F065
S1130AE0413009F068C02BB381E090E002C0880F68
S1130AF0991F6A95E2F7822B8BBB08952BB381E093
S1130B0090E002C0880F991F6A95E2F780958223CE
S1130B108BBB0895442371F0413009F04CC028B3D5
S1130B2081E090E002C0880F991F6A95E2F7822B5A
S1130B3088BB089528B381E090E002C0880F991F14
S1130B406A95E2F78095822388BB0895442369F06F
S1130B50413089F525B381E090E002C0880F991FE8
S1130B606A95E2F7822B85BB089525B381E090E076
S1130B7002C0880F991F6A95E2F78095822385BB8E
S1130B800895442369F04130B1F422B381E090E048
S1130B9002C0880F991F6A95E2F7822B82BB0895E1
S1130BA022B381E090E002C0880F991F6A95E2F7B2
S1130BB08095822382BB0895683060F5813079F096
S1130BC028F08230A9F08330E1F026C089B390E0A8
S1130BD002C0959587956A95E2F78170089586B36A
S1130BE090E002C0959587956A95E2F78170089523
S1130BF083B390E002C0959587956A95E2F781707A
S1130C00089580B390E002C0959587956A95E2F7C0
S1130C108170089580E0089580E00895683098F523
S1130C20813089F028F08230C9F0833011F10895C1
S1130C302BB381E090E002C0880F991F6A95E2F718
S1130C4082278BBB089528B381E090E002C0880F0F
S1130C50991F6A95E2F7822788BB089525B381E03E
S1130C6090E002C0880F991F6A95E2F7822785BB3E
S1130C70089522B381E090E002C0880F991F6A951D
S1130C80E2F7822782BB089540E065E081E00E949C
S1130C90910440E067E081E00E94910441E066E055
S1130CA081E00E94910440E064E081E00E949104AC
S1130CB00895FC018081813089F020F0823009F4AC
S1130CC05EC0089593B78181892B83BF83B7887FE2
S1130CD083BF93B78281892B83BF08959FB5818198
S1130CE08370892B8FBD2EB5918196959695892F0A
S1130CF090E0880F991F880F991F880F991F822BE6
S1130D008EBD82818230C1F028F4882349F081307D
S1130D1061F02DC08430F1F0B0F0853011F127C0BE
S1130D20109213011092120122C081E090E090937E
S1130D301301809312011BC088E090E0909313018B
S1130D408093120114C080E490E090931301809387
S1130D5012010DC080E091E0909313018093120181
S1130D6006C080E094E090931301809312018EB545
S1130D70887F8EBD9EB58281892B8EBD089595B5E1
S1130D808181892B85BD85B5887F85BD95B5828197
S1130D90892B85BD0895FC018081813041F018F0D4
S1130DA0823049F0089583B7682B63BF08958FB5E7
S1130DB0682B6FBD089585B5682B65BD08958EB504
S1130DC080618EBD8EB5877F8EBD8FB58E7F8FBDC2
S1130DD08FB58D7F8FBD57BD46BD603211F0603336
S1130DE019F439BD28BD0895603811F0603C11F440
S1130DF03BBD2ABD0895FC01858182FF04C08EB1EC
S1130E0081608EB903C08EB18E7F8EB9508181818D
S1130E104281338124819581852B842B832B822BE2
S1130E209370892B80648DB908956E9B06C08FB929
S1130E30779BFECF8FB1FB0180830895E09114016D
S1130E40F091150109950895E0911601F0911701AB
S1130E509281913049F030F0923041F0933039F082
S1130E6080E008958F7108958F7308958F770895A2
S1130E70FC0190931701809316018AB1877E8AB989
S1130E802AB19581892F90E0880F991F880F991FA7
S1130E90880F991F822B8AB9828182FF04C08AB18C
S1130EA084608AB903C08AB18B7F8AB92281237096
S1130EB030E0220F331F93818481292B282B206853
S1130EC020BD20813181C901A0E0B0E0880F991FC5
S1130ED0AA1FBB1F880F991FAA1FBB1F9C01AD012E
S1130EE0220F331F441F551F220F331F441F551F4A
S1130EF060E074E284EF90E00E94B807215029B9C1
S1130F0010BC08955D9BFECF0E9424078CB9089500
S1130F100E94820708950F931F93CF938C01C0E022
S1130F2003C00E948807CF5FF801EC0FF11D808198
S1130F308111F7CFCF911F910F91089590931901CB
S1130F40809318018AB180688AB9089501C08CB170
S1130F505F99FDCF08958CB1E0911801F0911901CA
S1130F6009950895E0911A01F0911B0109950895DE
S1130F70A1E21A2EAA1BBB1BFD010DC0AA1FBB1F99
S1130F80EE1FFF1FA217B307E407F50720F0A21B0B
S1130F90B30BE40BF50B661F771F881F991F1A9478
S1130FA069F760957095809590959B01AC01BD01A2
S10B0FB0CF010895F894FFCF6E
S1130FB8020102000202020302040205000000000A
S1130FC80001300107030180250300000300456E7A
S1130FD87472616E6365204761746500596F757238
S1130FE82049442069732056616C69642000496E65
S1130FF876616C6964204944000D0A2A2A2A2A2A3F
S113100820454E54455220524649442043415244B7
S1131018202A2A2A2A2A0D0A000D0A2A2A2A2A2AD2
S113102820454E5452414E43452047415445202AB9
S11310382A2A2A2A0D0A2A2A2A2A2A454E54455295
S113104820524649442043415244202A2A2A2A2A23
S10710580D0A000079
S9030000FC
