S01700004763634170706C69636174696F6E312E737265635B
S11300000C942A000C9434000C9434000C943400A6
S11300100C9434000C9434000C9434000C9434008C
S11300200C9434000C9434000C9434000C9434007C
S11300300C9434000C9434000C9434000C9434006C
S11300400C9434000C9434000C9434000C9434005C
S11300500C94340011241FBECFE5D8E0DEBFCDBF21
S11300600E9436000C9486000C9400008FEF8ABB2B
S113007081E08BBB2FE78AE196E0215080409040DD
S1130080E1F700C0000082E08BBB2FE78AE196E035
S1130090215080409040E1F700C0000083E08BBB1A
S11300A02FE78AE196E0215080409040E1F700C0BC
S11300B0000084E08BBB2FE78AE196E0215080406A
S11300C09040E1F700C0000085E08BBB2FE78AE198
S11300D096E0215080409040E1F700C0000086E0A7
S11300E08BBB2FE78AE196E0215080409040E1F7F6
S11300F000C0000087E08BBB2FE78AE196E0215027
S113010080409040E1F700C00000B0CFF894FFCFEA
S9030000FC
